:03000000020006F5
:03005F0002000399
:0300030002015A9D
:20006200AE82AF838E048F051EBEFF011FEC4D70F322AF827E00753F648E408F828E83C0C6
:2000820007C006120AAEAC82D006D007753F0A7540008F828E83C007C006C004120AAE75C7
:2000A2003F0A754000120A78AB82D004D006D007753F0A7540008F828E83C004C003120AC6
:2000C20078AE82D003D004D2A0C2A1D2A2D2A3EC900B0593F5909003E8C006C003120062F5
:2000E200D0037590FFD2A0D2A1C2A2D2A3EB900B0593F5909003E8120062D0067590FFD22B
:20010200A0D2A1D2A2C2A3EE900B0593F5909003E81200627590FF9086A002006243892052
:20012200758DFD759850D28E22AD82AE83AFF08D828E838FF0120A5CFC600C8C990DBD0072
:20014200010E1099EA80FB75990D10990280FB75990A10990280FB2212011F7F008F82C05D
:2001620007120074D0078F057E00C007C005C006740FC0E0740BC0E07480C0E07408C0E0C3
:200182007400C0E07440C0E01202CFE58124F8F58190000875F04012012B90271012006264
:0A01A200D0070FEF249B50B580B189
:0D0B0500C0F9A4B0999282F8809025640098
:06003500E478FFF6D8FD9F
:200013007900E94400601B7A00900B1D780175A000E493F2A308B8000205A0D9F4DAF2756B
:02003300A0FF2C
:2001AC00E53F454060467A01E53F25E0F53FE540334012F540E582953FE583954040030A68
:2001CC0080E6C3E54013F540E53F13F53FC3E582953FF5F0E58395404005F58385F082C37B
:0D01EC00E54013F540E53F13F53FDAE12251
:20003B007800E84400600A790175A000E4F309D8FC7800E84400600C7900900001E4F0A3C3
:04005B00D8FCD9FAFA
:2001F9007A10E4FBFCE58225E0F582E58333F583EB33FBEC33FCEB953FF5F0EC95404006AC
:09021900FCABF0438201DADD22A6
:20022200C013858113C082058105810581E51324FBF8A9130909E6F708E609F708E609F766
:20024200A813080886820886830886F0120A5CFAA3120A5CFBA3120A5CFF74012AFCE43BDE
:20026200FD8F06A813080886820886830886F0EC120AE6A3ED120AE6A3EE120AE68A828BDE
:20028200838FF0A81308E6120AE6851381D0132285821085831185F0127521107522007528
:2002A2002340850C24850D25850E26850F279002221203B5AE82AF83AB10AC11AD128B82D5
:2002C2008C838DF0E4120AE68E828F8322C013E581F51324F8FF8F27E51324FBFF8F217519
:2002E2002200752340E51324F8F886240886250886269002221203B5AE82AF83E51324FBEE
:1A030200F886030886040886058B828C838DF0E4120AE68E828F83D0132295
:20031C00AF82C017C018C0191203298007C015C0168F8222158115811581051FE4B51F02C5
:20033C00052022AF8274302FFF24C6500B74072FFFE51460034307208F8202031CE582FF0B
:20035C00C4540FF582C00712033FD007740F5FF58202033F85823FAB1AAC1BAD1CAE1DAA44
:20037C001E7541208A07EF2FF540EE2354014540FAEB2BFBEC33FCED33FDEE33FEC3EA95FA
:20039C003F4008EAC3953FFA430301D541D68B1A8C1B8D1C8E1D8A1E2285821585831685E3
:2003BC002117852218852319E4F51FF520AD24AE25AF268D828E838FF0120A5CFC74012D2E
:2003DC00F524E43EF5258F26ECFF7003020A20BF25028003020A18E4F528F529F52AF52B82
:2003FC00F52CF52DF52EF52FF531F532F5337534FF7535FFAC24AD25AE268C828D838EF07F
:20041C00120A5CF539A3AC82AD838C248D258E267425B5390885398212031C809074D0258A
:20043C003940030204DAE53924C650030204DA74FFB5344BB53548C004C005C00685323FEB
:20045C0085334090000AC006C005C004120A3FAA82AB83D004D005D006AE397D00EE2AFAF5
:20047C00ED3BFBEA24D0F532EB34FFF533E5324533D006D005D0047081752901020416C078
:20049C0004C005C00685343F85354090000AC006C005C004120A3FAA82AB83D004D005D0A8
:2004BC0006AD397E00ED2AFAEE3BFBEA24D0F534EB34FFF535D006D005D004020416742EF5
:2004DC00B5391574FFB53405B535028003020416E4F534F535020416749F2539500EE539D1
:2004FC00248540085339DF75140180037514007420B539030205A7742BB539030205A1740F
:20051C002DB5390280797442B539030205AD7443B539030205B97444B53903020748744632
:20053C00B5390302075F7448B539030204167449B53903020748744AB53903020416744CF3
:20055C00B539028052744FB539030207507450B539030206DD7453B5390280627454B539C7
:20057C00030204167455B539030207557458B5390302075A745AB53903020416020764754B
:20059C002801020416752A01020416752B01020416752D01020416752E01020416E52D6090
:2005BC000AE52714F989278706800BE52724FEFD8D278D0187068E8212031C020770E52774
:2005DC0024FDFE8E278E01870409870509870619198C1A8D1B8E1C8C828D838EF0120A27DD
:2005FC0085823A85833B74FFB53409B53506853A34853B35E528703DC3E53A9532E53B9506
:20061C00335032E532C3953AF532E533953BF533AC32AB338C028B061CBCFF011BEA4E60C3
:20063C0010758220C004C00312031CD003D00480E38C328B33AD34AE35851A82851B8385AC
:20065C001CF0120A5CFB6033C3E49D74808EF063F08095F050251DBDFF011E8B82C006C05E
:20067C000512031CD005D006AA1AAB1BAC1C0ABA00010B8A1A8B1B8C1C80BEE528700302A9
:20069C000770C3E53A9532E53B95334003020770E532C3953AF532E533953BF533AE32AD0D
:2006BC00338E038D041EBEFF011DEB4C700302076C758220C006C00512031CD005D00680B3
:2006DC00E0E52724FDFC8C278C01870209870309870419198A1A8B1B8C1CAC1CBC8000409D
:2006FC00047B438014BC600040047B50800BBC400040047B4980027B588B82C00312031C78
:20071C0075823A12031C75823012031C75827812031CD003BB4902800BBB50028006851BCC
:20073C0082120359851A821203598028752C0175310A8020753108801B75310A801675314F
:20075C00108011752F01800C85398212031C80048E328D33E52F605BE52724FCFE8E278EFA
:20077C000187030987040987050987061919198B1A8C1B8D1C8E1D751A12751B0B751C80DB
:20079C00851A3C851B3D851C3E7401253CFAE4353DFBAE3E8A1A8B1B8E1C853C82853D831D
:2007BC00853EF0120A5CFD70030203C98D8212031C80CDE53170030203C9E52D6029E52729
:2007DC0014F9892787067D007C007B008E1A8D1B8C1C8B1DE52C7063AB1AFCFDFE8B1A8CCE
:2007FC001B8D1C8E1D8054E52E6021E52724FCFE8E278E0187030987040987050987061936
:20081C0019198B1A8C1B8D1C8E1D802FE52724FEFE8E278E01870509870619EE3395E0FCFE
:20083C00FB8D1A8E1B8C1C8B1DE52C700EAB1AAC1BFDFE8B1A8C1B8D1C8E1DE52C6023E5D2
:20085C001D30E71BC3E4951AFBE4951BFCE4951CFDE4951DFE8B1A8C1B8D1C8E1D8003758E
:20087C002C0075300179477D007E00751E00853182C006C005C001120370D001D005D006B7
:20089C00E5307013E51EC454F0FCE51EC4540F4204E74CF7198002A71E0DBD00010EE530B5
:2008BC00B40100E433F530E51A451B451C451D70BA89388D368E37E53245337005753201EA
:2008DC00F533E529702DE5287029AA32AB33AC360C7E00C3EC9AEE9B5015758220C003C08C
:2008FC000212031CD002D0031ABAFF011B80DF8A328B33E52C601175822D12031C153274AA
:20091C00FFB532021533802EE53645376028E52A601175822B12031C153274FFB532021533
:20093C00338013E52B600F75822012031C153274FFB532021533E528702FAE32AD338E0326
:20095C008D041EBEFF011DC3E5369BE5379C503AE52960047C3080027C208C82C006C00561
:20097C0012031CD005D00680D5C3E5369532E5379533500FE532C39536F532E5339537F59D
:20099C0033800BE4F532F53380048E328D33A938AD36AE378D038E041DBDFF011EEB4C60EC
:2009BC0030E530B40100E433F530700A09E7C4540FFC8C1E80078704740F5CF51E851E8285
:2009DC00C006C005C00112033FD001D005D00680C3E52870030203C9AD32AE338D038E046C
:2009FC001DBDFF011EEB4C70030203C9758220C006C00512031CD005D00680E08F82120367
:0B0A1C001C0203C9851F828520832275
:0B0B12003C4E4F20464C4F41543E002B
:180A2700AA82AB83120A5C6003A380F8C3E5829AF582E5839BF583228F
:1D0A3F00E582853FF0A4C582C0F08540F0A4D0F025F0C583853FF0A42583F58322D4
:0D000600758147120B01E5826003020003C3
:1C0A5C0020F71430F6148883A88220F507E6A88375830022E280F7E49322E022A9
:200A7800C2D5E58330E70DD2D5E4C39582F582E49583F583E54030E70BE4C3953FF53FE411
:160A98009540F5401201AC30D50BE4C39582F582E49583F58322A4
:200AAE00C2D5E58330E70DD2D5E4C39582F582E49583F583E54030E70DB2D5E4C3953FF575
:180ACE003FE49540F5401201F930D50BE4C39582F582E49583F58322FC
:1B0AE60020F71130F6138883A88220F509F6A8837583002280FEF280F5F0220F
:040B010075820022D7
:00000001FF
