:06000000020019020417C2
:01000B0032C2
:03001300020442A2
:0F007200750E01750F00751064751100020016F0
:0300160002046C75
:1000810085822F85833085F031F5329003E8E4F5E0
:10009100F0120590AC82AD83AEF0FFC3E49CE49D09
:1000A100E49E74808FF063F08095F04001225389C3
:1000B100F0438901C2A9C3EE9401EF6480948040AA
:1000C1000FE4F58CF58AEE24FFFEEF34FFFF804E3E
:1000D100E4C39CF512E49DF51374019EF514E49FAD
:1000E100F515E4F52F753001F531F532851282856C
:1000F10013838514F012064DA882888CE4F52F75C0
:100101003001F531F5328512828513838514F012A1
:1001110005FEA882888A7C007D007E007F00C28D5A
:10012100D28C308DFDC28C02009C438920758DFDDF
:10013100759850D28E2285829910990280FB22AD4A
:1001410082AE83AFF08D828E838FF012069FFC60AA
:10015100188C820DBD00010EC007C006C00512013A
:1001610037D005D006D00780DC22E590F4F52A7D52
:10017100007E008E2B74F8252B4047852BF005F06F
:100181007A017B008006EA2AFAEB33FBD5F0F7AC63
:100191002A7F00EC5202EF5203EA4B601E74012DDC
:1001A100FCE43EFFED2416F8764C74012CFDE43F8F
:1001B100FEEC2416F9AC2B74312CF7E52B04F52B4E
:1001C10080B374012DFCE43EFFED2416F8760D7426
:1001D100012CFDE43FEC2416F8760AED2416F8769E
:1001E1000090001675F0400201407590FFAC10E5DB
:1001F10011FD3395E0FE8C828D838EF01200817F9C
:1002010003E4F50AF50B7401B50E0614B50F02806F
:100211000122EFF4F590C00712016BAB10E511FC60
:100221003395E0FD8B828C838DF0120081D0078F96
:1002310006EE2EFF050AE4B50A02050BC3E50A9492
:1002410007E50B6480948040BD7FC0E4F50AF50B9F
:100251007401B50E0614B50F02800122EFF4F5907A
:10026100C00712016BAB10E511FC3395E0FD8B82E9
:100271008C838DF0120081D007EFC313FF050AE4D0
:10028100B50A02050BC3E50A9407E50B6480948067
:1002910040BE227590FFAC10E511FD3395E0FE8C58
:1002A100828D838EF0120081E4FFF50AF50B752D26
:1002B10008F52E7C01E4F50CF50DE52D24FFFAE59A
:1002C1002E34FFFBC3E50C952DE50D6480852EF0E2
:1002D10063F08095F0504F7402B50E06E4B50F023D
:1002E100800122EF4CF4F590C007C004C003C002A6
:1002F10012016BA810E511F93395E0FD888289831D
:100301008DF0120081D002D003D004D007EAB50CE1
:1003110006EBB50D0280058C06EE2EFC050CE4B54E
:100321000CA2050D809EEC4207152D74FFB52D0220
:10033100152E050AE4B50A02050BC3E50A9408E582
:100341000B6480948050030202B4E4F50AF50B7447
:1003510002B50E06E4B50F02800122EFF4F590C05C
:100361000712016BAB10E511FC3395E0FD8B828C1C
:10037100838DF0120081D007EFC313FF050AE4B5A6
:100381000A02050BC3E50A9408E50B6480948040DA
:10039100BE227590FFAC10E511FD3395E0FE8C8215
:1003A1008D838EF01200817F017E80E4F50AF50BCA
:1003B1007403B50E06E4B50F02800122EE4FF4F589
:1003C10090C007C00612016BD006D007BF0802809B
:1003D1001AAA10E511FB3395E0FC8A828B838CF01D
:1003E100C007C006120081D006D0078F05ED2DFF92
:1003F100EEC313FE050AE4B50A02050BC3E50A9430
:1004010008E50B6480948040A722D2B2D2B3D2888F
:10041100D28A75A88522C0E0C0D0C2AF7401B50EE2
:100421000614B50F0280028008750E03750F008057
:1004310009150E74FFB50E02150FD2AFD0D0D0E062
:1004410032C0E0C0D0C2AF7403B50E06E4B50F02EE
:1004510080028008750E01750F008008050EE4B555
:100461000E02050FD2AFD0D0D0E03212012B120410
:100471000B7401B50E0614B50F028002800512013E
:10048100EB80EE7402B50E06E4B50F028002800522
:1004910012029480DC7403B50E06E4B50F028002EB
:1004A10080CF12039380CAF9E52F4530453145329B
:1004B10060777800C308E53220E73BE52F25E0F5BA
:1004C1002FE53033F530E53133F531E53233F532AF
:1004D100E582952FE5839530E5F09531E995325028
:1004E100D4C3E53213F532E53113F531E53013F5B7
:1004F10030E52F13F52FE582952FFCE5839530FD2F
:10050100E5F09531FEE995324007F98EF08D838C47
:1005110082C3E53213F532E53113F531E53013F5D8
:1005210030E52F13F52FD8CEE922FB7A20E4FCFD2C
:10053100FEFFE5822582F582E58333F583E5F0331D
:10054100F5F0EB33FB4017DAE98042E5822582F5CD
:1005510082E58333F583E5F033F5F0EB33FBEC33E0
:10056100FCED33FDEE33FEEF33FFEC952FED9530CF
:10057100EE9531EF95324013EC952FFCED9530FD62
:0F058100EE9531FEEF9532FF438201DABEEB2299
:06004800E478FFF6D8FD8C
:100026007900E94400601B7A009006BF780175A04C
:1000360000E493F2A308B8000205A0D9F4DAF27539
:02004600A0FF19
:10059000AAF0FBE582852FF0A4FCADF0E583852F62
:1005A000F0A42DFDE435F0FEE5828530F0A42DFDAC
:1005B000E5F03EFEE433FFEA852FF0A42EFEE5F0E1
:1005C0003FFFE5838530F0A42EFEE5F03FFFE58296
:1005D0008531F0A42EFEE5F03FFFEB852FF0A42F30
:1005E000FFEA8530F0A42FFFE5838531F0A42FFFCB
:0E05F000E5828532F0A42F8EF08D838C82225E
:10004E007800E84400600A790175A000E4F309D84D
:10005E00FC7800E84400600C7900900001E4F0A305
:04006E00D8FCD9FAE7
:1005FE00F9C2D530E715D2D5E4C39582F582E495DC
:10060E0083F583E495F0F5F0E499F9E53230E715DA
:10061E00E4C3952FF52FE49530F530E49531F5319F
:10062E00E49532F532E91204A830D512E4C395826E
:10063E00F582E49583F583E495F0F5F0E49922FBD9
:10064E00C2D530E715D2D5E4C39582F582E4958301
:10065E00F583E495F0F5F0E49BFBE53230E717B255
:10066E00D5E4C3952FF52FE49530F530E49531F5AB
:10067E0031E49532F532EB12052B30D513FBE4C382
:10068E009582F582E49583F583E495F0F5F0E49B8D
:01069E002239
:0D0019007581321206BBE5826003020016FD
:10069F0020F71430F6148883A88220F507E6A88384
:1006AF0075830022E280F7E49322E0227582002214
:00000001FF
